:1000000012C02CC02BC02AC029C028C027C026C0BF
:1000100025C024C023C022C021C020C01FC01EC0D4
:100020001DC01CC01BC011241FBECFE5D4E0DEBF25
:10003000CDBF10E0A0E6B0E0E2ECF3E002C0059036
:100040000D92AC36B107D9F720E0ACE6B0E001C0C4
:100050001D92AE36B207E1F762D1B1C1D1CF90BDEA
:1000600089B988E18AB986E880BD08955D9BFECF95
:100070008CB90895379A96B1936096B93D9A87B92D
:10008000369A349BFECF84B195B108950F931F9398
:10009000CF93C82FEFDF8C018C2FECDF8C2FEADFA2
:1000A000013A110510F480E090E0CF911F910F917B
:1000B00008950F931F93CF93DF93282F30E02B5F8A
:1000C0003E4F260F311D240F311D319521953109E9
:1000D000E1E6F0E083836583468337832087EF0181
:1000E0000BE610E08991C2DFC017D107D9F7DF9185
:1000F000CF911F910F910895462F682F8FE0D9DF80
:10010000089540E060E08DE0D4DF089540E060E0D5
:100110008EE0CFDF0895CF93853781F4C0916000E2
:100120004C2F60E086E0C5DFCF5FCF3118F4C0937D
:10013000600014C08EE18093600010C0843671F4BA
:10014000C09160004C2F60E086E0B3DFC15019F031
:10015000C093600003C081E08093600087EA91E66D
:100160000197F1F700C00000CF91089540E060E0F2
:1001700089E19FDF089541E060E089E19ADF089519
:10018000CF93C82F81E082DF9C0122573340273272
:10019000310520F461E081E0AFDF73C08F3F23E0E1
:1001A000920721F461E08C2FA7DF6BC09C01275DD3
:1001B00031092031310520F462E08C2F9DDF61C0D0
:1001C0009C01235F32402432310520F463E08C2F00
:1001D00093DF57C09C01285A32402432310520F465
:1001E00064E08C2F89DF4DC09C012C5632402432B4
:1001F000310520F465E08C2F7FDF43C09C012C513A
:1002000032402132310520F466E08C2F75DF39C091
:100210009C012A5E31402432310520F467E08C2FA6
:100220006BDF2FC09C012E5A31402A32310520F459
:1002300068E08C2F61DF25C09C01215331402F31B4
:10024000310520F469E08C2F57DF1BC09C01275E2D
:1002500031092E31310520F46AE08C2F4DDF11C0B9
:10026000845B9109449720F46BE08C2F45DF09C033
:1002700080916B00882329F06CE08C2F3DDF109279
:100280006B00CF910895CF93DF9300D0CDB7DEB749
:1002900082E0FCDE9A83898389819A818C31934044
:1002A00040F489819A81883F924018F084E633DFD8
:1002B00031C089819A81813D924040F489819A813F
:1002C000883A924018F085E726DF24C089819A8118
:1002D0008A34924040F489819A818C31924018F09E
:1002E0004ADF14DF17C089819A818236914038F441
:1002F00089819A818133914010F003DF0BC089819D
:100300009A818332914030F489819A81803F9105AE
:1003100008F02CDF0F900F90DF91CF91089585E0CA
:1003200090E09DDEB99ABA9AC198C29A2FE38DE007
:1003300093E0215080409040E1F700C0000062E06F
:1003400081E0DADEC1E0C0936B00C198C29A80E020
:100350009DDE90936D0080936C0080916C00909175
:100360006D008F3F910509F038F480916C009091F9
:100370006D008B3E910578F480916C0090916D003A
:100380008035914000F780916C0090916D0086332C
:10039000914058F4D8CFC298C19A85E0F1DE73DF5E
:1003A00080E074DE892B79F2F6CFC298C19A84E09E
:1003B000E7DE69DF80E06ADE892BB9F7C4CFF89405
:0203C000FFCF6D
:0C03C2001C7EFF06000000000000EF01A0
:00000001FF
