:1000000012C019C018C017C016C015C014C013C044
:1000100012C011C010C00FC00EC00DC00CC00BC06C
:100020000AC009C008C011241FBECFE5D4E0DEBF5E
:10003000CDBF8FD0A7C0E4CF379A96B1936096B961
:100040003D9A87B9369A349BFECF84B195B1089515
:100050005D9BFECF8CB90895EF92FF920F931F9393
:10006000CF93DF93AC019C01ADECBCEC7FD0EC01F5
:10007000D695C795D695C795D695C7959E01220F5B
:10008000331FCE01880F991F880F991F880F991F62
:10009000820F931F8A01081B190B9E0167D096954A
:1000A000879596958795969587959C01220F331F86
:1000B000880F991F880F991F880F991F820F931F10
:1000C000C81BD90B9A013695279536952795ABE72E
:1000D000B4E14CD0FC01F695E7959F01ADECBCEC8A
:1000E00045D09695879596958795969587959C0189
:1000F000220F331F880F991F880F991F880F991F90
:10010000820F931F7F01E81AF90A9A013695279505
:100110003695279536952795A5ECB0E227D0929590
:1001200082958F7089279F708927805D91DF80E39A
:100130008E0D8EDF8C2F805D8BDF80E3800F88DF5C
:100140008AE086DFDF91CF911F910F91FF90EF90B2
:10015000089581E071DF80DF2FE38DE093E021508F
:1001600080409040E1F700C00000F3CFA29FB001B3
:10017000B39FC001A39F01D0B29F700D811D1124B8
:08018000911D0895F894FFCFD2
:00000001FF
